:020000040000fa
:080000000002040000000000f2
:020000040000fa
:04000800c80200002a
:020000040000fa
:04000c00c802000026
:020000040000fa
:04001000c802000022
:020000040000fa
:04001400c80200001e
:020000040000fa
:04001800c80200001a
:020000040000fa
:04001c00c802000016
:020000040000fa
:04002000c802000012
:020000040000fa
:04002400c80200000e
:020000040000fa
:04002800c80200000a
:020000040000fa
:04002c00c802000006
:020000040000fa
:04003000c802000002
:020000040000fa
:04003400c8020000fe
:020000040000fa
:04003800e4140000cc
:020000040000fa
:04003c00c8020000f6
:020000040000fa
:04004000c8020000f2
:020000040000fa
:04004400c8020000ee
:020000040000fa
:04004800c8020000ea
:020000040000fa
:04004c00c8020000e6
:020000040000fa
:040050000a1500008d
:020000040000fa
:04005400c8020000de
:020000040000fa
:04005800c8020000da
:020000040000fa
:04005c00c8020000d6
:020000040000fa
:04006000ec1400009c
:020000040000fa
:04006400c8020000ce
:020000040000fa
:04006800c8020000ca
:020000040000fa
:04006c00c8020000c6
:020000040000fa
:04007000c8020000c2
:020000040000fa
:04007400c8020000be
:020000040000fa
:04007800c8020000ba
:020000040000fa
:04007c00c8020000b6
:020000040000fa
:04008000c8020000b2
:020000040000fa
:04008400c8020000ae
:020000040000fa
:04008800c8020000aa
:020000040000fa
:04008c00c8020000a6
:020000040000fa
:04009000c8020000a2
:020000040000fa
:04009400c80200009e
:020000040000fa
:04009800c80200009a
:020000040000fa
:04009c00c802000096
:020000040000fa
:0400a000c802000092
:020000040000fa
:0400a400c80200008e
:020000040000fa
:0400a800c80200008a
:020000040000fa
:0400ac00c802000086
:020000040000fa
:0400b000c802000082
:020000040000fa
:0400b400c80200007e
:020000040000fa
:0400b800c80200007a
:020000040000fa
:0400bc00c802000076
:020000040000fa
:0400c000c802000072
:020000040000fa
:0400c400c80200006e
:020000040000fa
:0400c800c80200006a
:020000040000fa
:0400cc00c802000066
:020000040000fa
:0400d000c802000062
:020000040000fa
:0400d400c80200005e
:020000040000fa
:0400d800c80200005a
:020000040000fa
:0400dc00c802000056
:020000040000fa
:0400e000c802000052
:020000040000fa
:0400e400c80200004e
:020000040000fa
:0400e800c80200004a
:020000040000fa
:0400ec00c802000046
:020000040000fa
:0400f000c802000042
:020000040000fa
:0400f400c80200003e
:020000040000fa
:0400f800c80200003a
:020000040000fa
:0400fc00c802000036
:020000040000fa
:04010000c802000031
:020000040000fa
:04010400c80200002d
:020000040000fa
:04010800c802000029
:020000040000fa
:04010c00c802000025
:020000040000fa
:04011000c802000021
:020000040000fa
:04011400c80200001d
:020000040000fa
:04011800c802000019
:020000040000fa
:04011c00c802000015
:020000040000fa
:04012000c802000011
:020000040000fa
:04012400c80200000d
:020000040000fa
:04012800c802000009
:020000040000fa
:04012c00c802000005
:020000040000fa
:04013000c802000001
:020000040000fa
:04013400c8020000fd
:020000040000fa
:04013800c8020000f9
:020000040000fa
:04013c00c8020000f5
:020000040000fa
:04014000c8020000f1
:020000040000fa
:04014400c8020000ed
:020000040000fa
:04014800c8020000e9
:020000040000fa
:04014c00c8020000e5
:020000040000fa
:04015000c8020000e1
:020000040000fa
:04015400c8020000dd
:020000040000fa
:04015800c8020000d9
:020000040000fa
:04015c00c8020000d5
:020000040000fa
:04016000c8020000d1
:020000040000fa
:04016400c8020000cd
:020000040000fa
:04020800c802000028
:020000040000fa
:04020c00c802000024
:020000040000fa
:04021000c802000020
:020000040000fa
:04021400c80200001c
:020000040000fa
:04021800c802000018
:020000040000fa
:04021c00c802000014
:020000040000fa
:04022000c802000010
:020000040000fa
:04022400c80200000c
:020000040000fa
:04022800c802000008
:020000040000fa
:04022c00c802000004
:020000040000fa
:04023000c802000000
:020000040000fa
:04023400c8020000fc
:020000040000fa
:04023800c8020000f8
:020000040000fa
:04023c00c8020000f4
:020000040000fa
:04024000c8020000f0
:020000040000fa
:04024400c8020000ec
:020000040000fa
:04024800c8020000e8
:020000040000fa
:04024c00c8020000e4
:020000040000fa
:04025000c8020000e0
:020000040000fa
:04025400c8020000dc
:020000040000fa
:04025800c8020000d8
:020000040000fa
:04025c00c8020000d4
:020000040000fa
:04026000c8020000d0
:020000040000fa
:04026400c8020000cc
:020000040000fa
:04026800c8020000c8
:020000040000fa
:04026c00c8020000c4
:020000040000fa
:04027000c8020000c0
:020000040000fa
:04027400c8020000bc
:020000040000fa
:04027800c8020000b8
:020000040000fa
:04027c00c8020000b4
:020000040000fa
:04028000c8020000b0
:020000040000fa
:04028400c8020000ac
:020000040000fa
:04028800c8020000a8
:020000040000fa
:04028c00c8020000a4
:020000040000fa
:04029000c8020000a0
:020000040000fa
:04029400c80200009c
:020000040000fa
:04029800c802000098
:020000040000fa
:04029c00c802000094
:020000040000fa
:0402a000c802000090
:020000040000fa
:0402a400c80200008c
:020000040000fa
:0402a800c802000088
:020000040000fa
:0402ac00c802000084
:020000040000fa
:0402b000c802000080
:020000040000fa
:0402b400c80200007c
:020000040000fa
:0402b800c802000078
:020000040000fa
:0402bc00c802000074
:020000040000fa
:0402c000c802000070
:020000040000fa
:0402c400c80200006c
:020000040000fa
:0402c800c802000068
:020000040000fa
:0402cc00c802000064
:020000040000fa
:0402d000c802000060
:020000040000fa
:0402d400c80200005c
:020000040000fa
:0402d800c802000058
:020000040000fa
:0402dc00c802000054
:020000040000fa
:0402e000c802000050
:020000040000fa
:0402e400c80200004c
:020000040000fa
:0402e800c802000048
:020000040000fa
:0402ec00c802000044
:020000040000fa
:0402f000c802000040
:020000040000fa
:0402f400c80200003c
:020000040000fa
:0402f800c802000038
:020000040000fa
:0402fc00c802000034
:020000040000fa
:04030000c80200002f
:020000040000fa
:04030400c80200002b
:020000040000fa
:04030800c802000027
:020000040000fa
:04030c00c802000023
:020000040000fa
:04031000c80200001f
:020000040000fa
:04031400c80200001b
:020000040000fa
:04031800c802000017
:020000040000fa
:04031c00c802000013
:020000040000fa
:04032000c80200000f
:020000040000fa
:04032400c80200000b
:020000040000fa
:04032800c802000007
:020000040000fa
:04032c00c802000003
:020000040000fa
:04033000c8020000ff
:020000040000fa
:04033400c8020000fb
:020000040000fa
:04033800c8020000f7
:020000040000fa
:04033c00c8020000f3
:020000040000fa
:04034000c8020000ef
:020000040000fa
:04034400c8020000eb
:020000040000fa
:04034800c8020000e7
:020000040000fa
:04034c00c8020000e3
:020000040000fa
:04035000c8020000df
:020000040000fa
:04035400c8020000db
:020000040000fa
:04035800c8020000d7
:020000040000fa
:04035c00c8020000d3
:020000040000fa
:04036000c8020000cf
:020000040000fa
:04036400c8020000cb
:020000040000fa
:10040000ef8f20000e7322000e0188000000000014
:10041000000020000000e000020032000001200087
:1004200020028800140007005b0007000000e000c5
:1004300003003a0020522100010020000200370092
:100440000000200001002000810f70000100320038
:1004500014000700000020000000e000020032004d
:100460000000020000000000ce02020000000000b8
:100470000040da000000fe004440a9000000200017
:100480000000e0000300320000002000a00188000e
:100490004440a800000006008a1f78008b1f7800e7
:1004a0000000060091018800800478000000eb0045
:1004b0001a003700e284440032a0b4009905ba0063
:1004c000e284440032a0b4009906ba00e2844400f9
:1004d00032a0b4000006eb00476fde00fd07b2005b
:1004e000636ce10003003a00ebff07000000eb0043
:1004f0000a003700606ce10004003a00005deb0088
:100500008b05e900fdff3e00040037006168e10053
:10051000010032000086eb000b00070019c7ba008b
:100520001905ba000e04e00003003a000a00e000da
:10053000e0ff3a0000000600fe07b2009e018800be
:100540008a047800f5ff3700395dba008b05e900b1
:100550000c003200295dba008b05e900080032006a
:100560000c00e00003003a00e284440032a0b40032
:10057000f5ff370019ddba008b05e900faff3a00f4
:100580008904e800e184440032a0b40000000600c1
:0c0590000040da000000fe000000050042
:020000040000fa
:10059c000000fa005e09070000482800e101200075
:1005ac00830907007007a800f0e321006019880098
:1005bc00c022a900c8e2a9002136800000fe2f004d
:1005cc00008060007000b300203688004135800048
:1005dc0000fe2f00008060005000b3004035880002
:1005ec003136800000fe2f00008060000030a0003b
:1005fc00303688003d0107000d010700b2010700ed
:10060c00ffff37000a00fa00200798003107980016
:10061c00420798004e0090000080e80010079800f8
:10062c002e0090004800de00004078006f40600013
:10063c0002c2b30082404000007a220001487800d8
:10064c002e00900080407800107a2200014878003b
:10065c0020002000000f7800080037001e80e90001
:10066c00be0090000080400090407800007a22008c
:10067c001e004000014878001e0fe8001e0090008c
:10068c009e007800808f5000f4ff39001e0090000f
:10069c00d10007000080fa00000006000a00fa00f2
:1006ac002007980031079800420798004e009000f0
:1006bc000080e800100798002e0090004800de0033
:1006cc00004078006f40600002c3b30082404000dd
:1006dc00007a2200014878002e00900080407800bb
:1006ec00107a22000148780020002000000f7800ca
:1006fc0005003700007a22001e0040008040eb000d
:10070c00014878001e0fe8001e0090009e00780043
:10071c00808f5000f7ff39001e009000ae000700dc
:10072c000000eb00000f7800070037003e0090003f
:10073c001e0040009e80e80002742200e2c0780097
:10074c00014878001e0fe8004e0090009e007800d3
:10075c00808f5000f5ff39000080fa000000060081
:10076c000600fa001007980041479800300020005e
:10077c00000f78001e0090004800de00004078005a
:10078c006f40600002c2b30082404000007a220039
:10079c00014878001e00900080407800107a2200fa
:1007ac0001487800207a2200ce4090000148780061
:1007bc001e007800880007000080fa000000060088
:1007cc000600fa001007980021079800300020005e
:1007dc00000f78001e0090004800de0000407800fa
:1007ec006f40600002c3b30082404000007a2200d8
:1007fc00014878001e00900080407800107a22009a
:10080c0001487800207a22008040eb0001487800f3
:10081c001e007800700007002074220090407800c1
:10082c002e009000014878000080fa0000000600bd
:10083c000a00fa0020079800320798004307980036
:10084c0060002000100798002e0090004800de0089
:10085c00004078006f40600002c2b300824040004c
:10086c00007a2200014878002e0090008040780029
:10087c00107a2200014878000040eb00004f78000d
:10088c00100037001e80fb000081e8001e80fb007a
:10089c00c301dd003e009000ce0090000302780002
:1008ac000402e900030033008100d1000080d30072
:1008bc00fbff370080407800007a2200017079003d
:1008cc001e4fe8001e407800e34f5000edff36004d
:1008dc001e009000400007000080fa000000060097
:1008ec000400fa000040eb00004f78000a003700cb
:1008fc001e80fb004280200012417800e184200021
:10090c00827078001e80fb00e180200000c1eb00ab
:10091c00827078001e4fe8001e407800e34f5000b4
:10092c00f3ff36001e80fb0000017800e1842000fc
:10093c00001d200033ff070000d0220011132000ff
:10094c009b0807001e80fb0000017800e18020005e
:10095c00001d200051ff0700c222a9000040eb003f
:10096c00204798000040eb00104798001500370016
:10097c001e4090000080fb00e1842000e1407800e4
:10098c001e4090000080fb00e28020006240780056
:10099c0000c068000080fb000000e9004f00de0092
:1009ac00204798002e4090000004a2000004e000b4
:1009bc0001003200c222a8001e4090000040e80056
:1009cc00104798001e4090009e4f5000e8ff3900e1
:1009dc000080fa00000006000200fa00000f780008
:1009ec000d0807001e0078002f0007001e0078007d
:1009fc001c00070083e3a80000000000111c80000d
:100a0c0000002800008060000000e000fbff3a00be
:100a1c0000000000611c80000000280000806000c5
:100a2c000000e000fbff3a000080fa000000060026
:100a3c000200fa0020002000000f7800007a22004b
:100a4c008040eb0001487800107a22008040eb00d7
:100a5c00014878001e007800dfff07000080fa00d4
:100a6c00000006000200fa00000f780010002600bb
:100a7c00001c88001e00e900501c8800a00020000b
:100a8c00101c880080242000401c8800007a200064
:100a9c00201c88008480a9009480a80081e3a80011
:100aac000080fa00000006000200fa00000f780037
:100abc0010002400601c88001e00e900b01c880097
:100acc00a0002000701c880080242000a01c88003e
:100adc0000742000801c880085c0a90095c0a80067
:100aec008de3a8000080fa00000006000000fa0068
:100afc008540a9009540a90011128000c0ff2f006d
:100b0c00008060000010a0001012880011128000fc
:100b1c0030fe2f0000806000101288004302a800f5
:100b2c004342a90042a2a80041e2a8008540a900c6
:100b3c009540a8000080fa00000006000600fa00ac
:100b4c00200798006000b800008fbe002e009000b7
:100b5c00614060000080fb00610060009e00780036
:100b6c000100a10001007000000f78002e00900021
:100b7c000000d100614060000080fb00610060005b
:100b8c004200dd009e0078000120a10001007000f1
:100b9c00000f78002e0090004200de0061406000e3
:100bac000080fb00610060004400dd009e007800c6
:100bbc000140a10001007000000f78002e00900091
:100bcc004300de00634060000080fb0063006000b7
:100bdc004500dd001e017800f1f92f008100610055
:100bec0001007000000f78001e40780080407800f3
:100bfc0000e02000dafe07000080fa00000006008a
:100c0c000600fa00200798005047800061478000da
:100c1c00008fbe001e007800e14060002e009000a6
:100c2c008180fb00e1806000100178000200a100cf
:100c3c0082807000010878001e0078004200de00ff
:100c4c00e14060002e0090008180fb00e18060009c
:100c5c0081804000100178000210a1008280700099
:100c6c00010878001e0078004400de00e1406000be
:100c7c002e0090008180fb00e1806000c208dd0046
:100c8c00100178000220a100828070000108780019
:100c9c001e0078004500de00e34060002e0090004e
:100cac008180fb00e3806000c308dd0090017800c8
:100cbc0072fe2f00028161008280700001087800b2
:100ccc000080fa00000006000a00fa0058ff070036
:100cdc000e007800caff07001e0078008001b300e8
:100cec00000f78001e00780094ff07008000eb00d6
:100cfc000000eb003c0007000e80e800f00007004d
:100d0c001e0090000050a100100798001e009000db
:100d1c0000e0a100100798009e009000f0ff270053
:100d2c0000806000100798000e80e8005700070054
:100d3c001200200021002000100020006a01070092
:100d4c006600470004060700be009000f00f2e005e
:100d5c000080600000a0a00030079800be0090004a
:100d6c0000002e000100700030079800be009000bb
:100d7c0010fc2f00008060003007980066004700d0
:100d8c00800078001000200032060700ce00900092
:100d9c0010fc2f0000806000e001b30040079800b9
:100dac00ce009000001c200001007000400798004d
:100dbc004e0090000000a00040079800680047001b
:100dcc00800078002000200072060700aa060700a9
:100ddc0000c0eb00b70607000000eb00e1060700bf
:100dec000080fa00000006000a00fa0030079800a4
:100dfc00410798000000eb00000f780070e0200025
:100e0c00000f78006000b8001007980021079800c8
:100e1c000e80e80063004000800078001e0078001f
:100e2c0067fe07003e0090000040780061406000c3
:100e3c000080fb00610060004800dd00ae00900007
:100e4c000180a10001007000200798004e00900066
:100e5c0000407800614060000080fb006100600091
:100e6c004900dd00ae0090000190a100010070006f
:100e7c00200798005e409000804078001e007800ab
:100e8c0037fe07000080fa00000006000600fa009a
:100e9c00200798007044800081448000008fbe00c1
:100eac002e009000100078007f4060000080fb0056
:100ebc007f0060001e01780001fe2f0081006100a0
:100ecc0001007000000f78002e00900010007800d8
:100edc004500de00614060000080fb0061006000a6
:100eec004500dd009e0078000150a100010070005b
:100efc00000f78002e009000100078004600de00f5
:100f0c00614060000080fb00610060004600dd0075
:100f1c009e0078000160a10001007000000f7800b5
:100f2c002e009000100078004700de006140600049
:100f3c000080fb00610060004800dd009e0078002e
:100f4c000180a10001007000000f78002e009000bd
:100f5c00100078004800de00634060000080fb0059
:100f6c00630060004900dd001e017800f19f2f0036
:100f7c008100610001007000000f78002e009000cd
:100f8c00100078004a00de00614060000080fb0029
:100f9c00610060004c00dd009e00780001c0a100e3
:100fac0001007000000f78002e00900010007800f7
:100fbc004b00de00614060000080fb0061006000bf
:100fcc009e0090000100a100010070001007980025
:100fdc002e009000100078004c00de006140600094
:100fec000080fb0061006000000040009e0090004b
:100ffc000110a10001007000100798002e00900055
:10100c00100078004d00de00614060000080fb00a5
:10101c00610060004200dd009e0090000120a100f4
:10102c0001007000100798002e009000100078004e
:10103c004e00de00614060000080fb00610060003b
:10104c004300dd009e0090000130a1000100700003
:10105c00100798002e009000100078004f00de0062
:10106c00004078000080fb00610060004400dd005f
:10107c009e0090000140a100010070001007980034
:10108c002e009000100090006f4060000080fb006c
:10109c004c00dd001e019000f1ff2000810061007a
:1010ac0001007000100798001e00be000001be0079
:1010bc000000eb00defd07000080fa0000000600d7
:1010cc000600fa00200798007044800081448000dc
:1010dc00008fbe001e007800ff4060002e009000c4
:1010ec008180fb00ff8060009001780002fe2f00e1
:1010fc000281610082807000010878001e00780077
:10110c004500de00e14060002e0090008180fb0075
:10111c00e1806000c508dd00100178000250a100dc
:10112c0082807000010878001e0078004600de0006
:10113c00e14060002e0090008180fb00e1806000a7
:10114c00c608dd00100178000260a10082807000ea
:10115c00010878001e0078004800de00e1406000c5
:10116c002e0090008180fb00e1806000c708dd004c
:10117c00100178000270a1008280700001087800d4
:10118c001e0078004900de00e34060002e00900055
:10119c008180fb00e3806000c808dd0090017800ce
:1011ac00f2cf2f000281610082807000010878006c
:1011bc001e0078004c00de00e14060002e00900024
:1011cc008180fb00e1806000ca08dd00100178001e
:1011dc0002a0a10082807000010878001e0090001f
:1011ec00e14060002e0090008180fb00e1806000f7
:1011fc00cb08dd001001780002b0a10082807000e5
:10120c00010878001e0090000000d100e140600051
:10121c002e0090008180fb00e1806000cc08dd0096
:10122c001001780002c0a1008280700001087800d3
:10123c001e0090004200de00e14060002e00900095
:10124c008180fb00e1806000cd08dd00100178009a
:10125c0002d0a10082807000010878001e0090006e
:10126c004300de00e14060002e0090008180fb0016
:10127c00e1806000ce08dd001001780002e0a100e2
:10128c0082807000010878001e0090004400de008f
:10129c00e14060002e0090008180fb00cf08dd0053
:1012ac0090017800f2ff27000281610082807000bb
:1012bc00010878001e0090004c00de008040780091
:1012cc002e0090008180fb00ef8060009001900068
:1012dc0002ff2f00028161008280700011009800d3
:1012ec000080fa00000006000600fa00000f7800eb
:1012fc0011079800220798002e0090000000e000d3
:10130c0003003200e10f5000070032000c003700e0
:10131c001e007800620007009e0090001e007800fe
:10132c0050020700060037001e0078000600070078
:10133c009e0090001e007800b00007000000000026
:10134c000080fa00000006000600fa002007980052
:10135c0090448000a1448000008fbe002e009000bd
:10136c00ee0f500003003e00e80f50001600310055
:10137c0005003700f00f500023003600f10f50002d
:10138c0031003200400037000040eb00304798003d
:10139c00e0c1b300204798009e007800f00f2800b1
:1013ac00808060000070200001007000000f780049
:1013bc009e00780000f82f00008060007000b300e1
:1013cc00000f7800300037000040eb0030479800e9
:1013dc00e0c3b300204798009e007800f00f28006f
:1013ec008080600000f0200001007000000f780089
:1013fc009e00780000f82f0000806000f000b30021
:10140c00000f7800200037000040eb0030479800b8
:10141c00e0c0b300204798009e007800f00f280031
:10142c00808060000030200001007000000f780008
:10143c009e00780000f82f00008060003000b300a0
:10144c00000f7800100037000040eb003047980088
:10145c00e0c7b300204798009e007800f00f2800ea
:10146c008080600000f0210001007000000f780007
:10147c009e00780000f82f0000806000f001b3009f
:10148c00000f7800000000001e00be000001be002e
:10149c0040002000e6fc07000080fa000000060077
:1014ac000600fa002007980090448000a1448000b8
:1014bc00008fbe002e009000ee0f500003003e0087
:1014cc00e80f50001600310005003700f00f5000f7
:1014dc0023003600f10f500031003200410037007c
:1014ec000040eb0030479800e0c3b3002047980061
:1014fc009e007800f00f28008080600000f0200033
:10150c0001007000000f78009e00780000f82f009a
:10151c0000806000f000b300000f7800310037004d
:10152c000040eb0030479800e0c7b300204798001c
:10153c009e007800f00f28008080600000f02100f1
:10154c0001007000000f78009e00780000f82f005a
:10155c0000806000f001b300000f7800210037001c
:10156c000040eb0030479800e0c1b30020479800e2
:10157c009e007800f00f2800808060000070200032
:10158c0001007000000f78009e00780000f82f001a
:10159c00008060007000b300000f7800110037006d
:1015ac000040eb0030479800e0cfb3002047980094
:1015bc009e007800f00f28008080600000f023006f
:1015cc0001007000000f78009e00780000f82f00da
:1015dc0080806000f003200001007000000f780094
:1015ec00000000001e00be000001be0040002000f4
:1015fc008ffc07000080fa00000006001000fa00c3
:10160c006007980071079800b0448000c1448000c6
:10161c0020079800310798006000b8004007980038
:10162c0051079800de009000c0ff2f000080600082
:10163c000010a000500798006000b800008fbe009a
:10164c006e0090008000eb001201200003002000cf
:10165c00820f5000838f580076013e00006001001d
:10166c0011003700340037003300370055003700c5
:10167c00750037006e0137006d0137006c013700c3
:10168c0091003700b8003700de0037000101370049
:10169c002301370066013700440137004900370049
:1016ac0063013700880037000040eb00704798005a
:1016bc00be00900000fe2f0000806000e000b30030
:1016cc0030079800ae009000f00f2f008080600073
:1016dc00003020000100700020079800ae00900040
:1016ec0000ff2f00008060003000b300200798003e
:1016fc00ce009000f00f28008080600000f02000e9
:10170c0001007000400798001e007800004078002f
:10171c00f043b2008080fb00f003200000806000ea
:10172c004e01900001fc2f0081006100010070004f
:10173c00400798003f0137000040eb0070479800cd
:10174c00be00900000fe2f00008060006000b3001f
:10175c0030079800ae009000f00f2f000080600062
:10176c000080a00020079800ae00900000ff2f0022
:10177c00008060000000a00020079800ce009000c0
:10178c00f00f2800808060000070200001007000c5
:10179c00400798001e00780000407800f043b2002b
:1017ac008080fb00f0032000008060004e01900060
:1017bc0001fc2f00810061000100700040079800bf
:1017cc001c0137000040eb0070479800be009000f1
:1017dc0000fe2f00008060000010a0003007980071
:1017ec00ae009000f00f2f000080600020079800e2
:1017fc00ae00900000ff2f000080600020079800d2
:10180c00ce009000f00f2800808060000030200097
:10181c0001007000400798001e007800004078001e
:10182c00f043b2008080fb00f003200000806000d9
:10183c004e01900001fc2f0081006100010070003e
:10184c0040079800fb0037000040eb007047980001
:10185c00be00900000fe2f00008060000000a00081
:10186c0030079800ae009000f00f2f000080600051
:10187c0020079800ae00900000ff2f000080600051
:10188c0020079800ce009000f00f28000080600028
:10189c000090a000400798001e00780000407800df
:1018ac00f043b2008080fb00f00320000080600059
:1018bc004e01900001fc2f008100610001007000be
:1018cc0040079800db0037000040eb0070479800a1
:1018dc00be00900000fe2f0000806000e001b3000d
:1018ec0030079800ae009000f00f2f008080600051
:1018fc00007020000100700020079800ae009000de
:10190c0000ff2f00008060007000b30020079800db
:10191c00ce009000f00f28008080600000f02100c5
:10192c0001007000400798001e007800004078000d
:10193c00f043b2008080fb00f003200000806000c8
:10194c004e01900001fc2f0081006100010070002d
:10195c0040079800de009000c0ff2f000080600060
:10196c0050079800b30037000040eb007047980018
:10197c00be00900000fe2f00008060001001b3003c
:10198c0030079800ae009000f00f2f000080600030
:10199c0000a0a00020079800ae00900000ff2f00d0
:1019ac00008060000020a00020079800ce0090006e
:1019bc00f00f2800808060000020210001007000e2
:1019cc00400798001e00780000407800f043b200f9
:1019dc008080fb00f0032000008060004e0190002e
:1019ec0001fc2f008100610001007000400798008d
:1019fc00de009000c0ff2f000080600050079800b0
:101a0c008c0037000040eb0070479800be0090003f
:101a1c0000fe2f0000806000e000b300300798004b
:101a2c00ae009000f00f2f0080806000003020008e
:101a3c000100700020079800ae00900000ff2f00fe
:101a4c00008060003000b30020079800ce009000aa
:101a5c00f00f28008080600000f020000100700072
:101a6c00400798001e00780000407800f043b20058
:101a7c008080fb00f0032000008060004e0190008d
:101a8c0001fc2f00810061000100700040079800ec
:101a9c00680037000040eb0070479800be009000d3
:101aac0000fe2f00008060000030a000300798007e
:101abc00ae009000f00f2f00008060000090a0009e
:101acc0020079800ae00900000ff2f0000806000ff
:101adc000010a00020079800ce009000f00f280006
:101aec00808060000090200001007000400798008a
:101afc001e00780000407800f043b2008080fb00ac
:101b0c00f0032000008060004e01900001fc2f00cb
:101b1c00810061000100700040079800450037000b
:101b2c000040eb0070479800be00900000fe2f00b4
:101b3c00008060006000b30030079800ae00900099
:101b4c00f00f2f00008060000080a000200798009c
:101b5c00ae00900000ff2f00008060000000a0008d
:101b6c0020079800ce009000f00f280080806000c5
:101b7c000070200001007000400798001e007800e3
:101b8c0000407800f043b2008080fb00f00320009e
:101b9c00008060004e01900001fc2f00810061006c
:101bac000100700040079800220037000040eb0055
:101bbc0070479800be00900000fe2f00008060006f
:101bcc000010a00030079800ae009000f00f2f001e
:101bdc000080600020079800ae00900000ff2f00ee
:101bec000080600020079800ce009000f00f2800c5
:101bfc0080806000003020000100700040079800d9
:101c0c001e00780000407800f043b2008080fb009a
:101c1c00f0032000008060004e01900001fc2f00ba
:101c2c00810061000100700040079800010037003e
:101c3c00000000002e009000be0090000001be00cd
:101c4c0080002000fafa07004e009000de009000a1
:101c5c000001be00c0002000f5fa07000080fa0069
:101c6c00000006001000fa00600798007107980049
:101c7c00b0448000c14480002007980031079800d0
:101c8c006000b8004007980051079800de009000f3
:101c9c00c0ff2f00008060000010a00050079800cb
:101cac006000b800008fbe006e0090008000eb005a
:101cbc001201200003002000820f5000838f580077
:101ccc0019023e000060010011003700340037009b
:101cdc0057003700790037009b003700bd003700f4
:101cec00dc003700f60037000e01370035013700f5
:101cfc005b0137007e013700a1013700c4013700ba
:101d0c00e60137006d003700d200370005013700bf
:101d1c000040eb0070479800be00900000fe2f00c2
:101d2c0000806000e001b30030079800ae00900026
:101d3c00f00f2f0080806000007020000100700008
:101d4c0020079800ae00900000ff2f00008060007c
:101d5c007000b30020079800ce009000f00f280010
:101d6c008080600000f021000100700040079800a6
:101d7c001e00780000407800f043b2008080fb0029
:101d8c00f0032000008060004e01900001fc2f0049
:101d9c00810061000100700040079800e2013700eb
:101dac000040eb0070479800be00900000fe2f0032
:101dbc0000806000e000b30030079800ae00900097
:101dcc00f00f2f00808060000030200001007000b8
:101ddc0020079800ae00900000ff2f0000806000ec
:101dec003000b30020079800ce009000f00f2800c0
:101dfc008080600000f02000010070004007980017
:101e0c001e00780000407800f043b2008080fb0098
:101e1c00f0032000008060004e01900001fc2f00b8
:101e2c00810061000100700040079800be0137007e
:101e3c000040eb0070479800be00900000fe2f00a1
:101e4c00008060000030a00030079800ae009000c9
:101e5c00f00f2f00008060000090a0002007980079
:101e6c00ae00900000ff2f00008060000010a0006a
:101e7c0020079800ce009000f00f280080806000b2
:101e8c000090200001007000400798001e007800b0
:101e9c0000407800f043b2008080fb00f00320008b
:101eac00008060004e01900001fc2f008100610059
:101ebc0001007000400798009b0137000040eb00c8
:101ecc0070479800be00900000fe2f00008060005c
:101edc006000b30030079800ae009000f00f2f00a8
:101eec00008060000080a00020079800ae009000e9
:101efc0000ff2f00008060000000a0002007980069
:101f0c00ce009000f00f2800808060000070200050
:101f1c0001007000400798001e0078000040780017
:101f2c00f043b2008080fb00f003200000806000d2
:101f3c004e01900001fc2f00810061000100700037
:101f4c0040079800780137000040eb00704798007c
:101f5c00be00900000fe2f00008060000020a0005a
:101f6c0030079800ae009000f00f2f00008060004a
:101f7c000080a00020079800ae00900000ff2f000a
:101f8c00008060000000a00020079800ce009000a8
:101f9c00f00f2800808060000050200001007000cd
:101fac00400798001e00780000407800f043b20013
:101fbc008080fb00f0032000008060004e01900048
:101fcc0001fc2f00810061000100700040079800a7
:101fdc00550137000040eb0070479800be009000a0
:101fec0000fe2f00008060003000b3003007980026
:101ffc00ae009000f00f2f000080600020079800ca
:10200c00ae00900000ff2f000080600020079800b9
:10201c00ce009000f00f28000080600000a0a0000f
:10202c00400798001e00780000407800f043b20092
:10203c008080fb00f0032000008060004e019000c7
:10204c0001fc2f0081006100010070004007980026
:10205c00350137000040eb0070479800be0090003f
:10206c0000fe2f00008060000010a00030079800d8
:10207c00ae009000f00f2f00008060002007980049
:10208c00ae00900000ff2f00008060002007980039
:10209c00ce009000f00f28008080600000302000ff
:1020ac000100700040079800ce00900000fc2f004b
:1020bc00008060000000a000400798001a01370063
:1020cc000040eb0070479800be00900000fe2f000f
:1020dc00008060000000a00030079800ae00900067
:1020ec00f00f2f000080600020079800ae009000d9
:1020fc0000ff2f000080600020079800ce009000a9
:10210c00f00f2800008060000090a00040079800ad
:10211c00ce00900000fc2f0000806000400798006b
:10212c000101370010c0b30070479800be0090004a
:10213c0000fe2f0000806000e001b3003007980023
:10214c00ae009000f00f2f00808060000070200027
:10215c000100700020079800ae00900000ff2f00d7
:10216c00008060007000b30020079800ce00900043
:10217c00f00f28008080600000f02100010070004a
:10218c00400798001e00780000407800f043b20031
:10219c008080fb00f0032000008060004e01900066
:1021ac0001fc2f00810061000100700040079800c5
:1021bc00de009000c0ff2f000080600050079800e8
:1021cc00d900370010c0b30070479800be009000d3
:1021dc0000fe2f00008060001001b3003007980053
:1021ec00ae009000f00f2f000080600000a0a00057
:1021fc0020079800ae00900000ff2f0000806000c8
:10220c000020a00020079800ce009000f00f2800be
:10221c0080806000002021000100700040079800c1
:10222c001e00780000407800f043b2008080fb0074
:10223c00f0032000008060004e01900001fc2f0094
:10224c00810061000100700040079800de009000e2
:10225c00c0ff2f000080600050079800b2003700cc
:10226c000040eb0070479800be00900000fe2f006d
:10227c0000806000e001b30030079800ae009000d1
:10228c00f00f2f00808060000070200001007000b3
:10229c0020079800ae00900000ff2f000080600027
:1022ac007000b30020079800ce009000f00f2800bb
:1022bc008080600000f02100010070004007980051
:1022cc001e00780000407800f043b2008080fb00d4
:1022dc00f0032000008060004e01900001fc2f00f4
:1022ec008100610001007000400798008e003700eb
:1022fc000040eb0070479800be00900000fe2f00dd
:10230c00008060002001b30030079800ae00900000
:10231c00f00f2f0080806000005020000100700042
:10232c0020079800ae00900000ff2f000080600096
:10233c005000b30020079800ce009000f00f28004a
:10234c008080600000302100010070004007980080
:10235c001e00780000407800f043b2008080fb0043
:10236c00f0032000008060004e01900001fc2f0063
:10237c008100610001007000400798006a0037007e
:10238c000040eb0070479800be00900000fe2f004c
:10239c0000806000e000b30030079800ae009000b1
:1023ac00f00f2f00808060000030200001007000d2
:1023bc0020079800ae00900000ff2f000080600006
:1023cc003000b30020079800ce009000f00f2800da
:1023dc008080600000f02000010070004007980031
:1023ec001e00780000407800f043b2008080fb00b3
:1023fc00f0032000008060004e01900001fc2f00d3
:10240c008100610001007000400798004600370011
:10241c000040eb0070479800be00900000fe2f00bb
:10242c00008060000030a00030079800ae009000e3
:10243c00f00f2f00008060000090a0002007980093
:10244c00ae00900000ff2f00008060000010a00084
:10245c0020079800ce009000f00f280080806000cc
:10246c000090200001007000400798001e007800ca
:10247c0000407800f043b2008080fb00f0032000a5
:10248c00008060004e01900001fc2f008100610073
:10249c000100700040079800230037000040eb005b
:1024ac0070479800be00900000fe2f000080600076
:1024bc006000b30030079800ae009000f00f2f00c2
:1024cc00008060000080a00020079800ae00900003
:1024dc0000ff2f00008060000000a0002007980083
:1024ec00ce009000f00f280080806000007020006b
:1024fc0001007000400798001e0078000040780032
:10250c00f043b2008080fb00f003200000806000ec
:10251c004e01900001fc2f00810061000100700051
:10252c0040079800000000002e009000be009000b4
:10253c000001be0080002000bdf807004e00900096
:10254c00de0090000001be00c0002000b8f80700bb
:10255c000080fa00000006000600fa002007980030
:10256c00f046800001478000008fbe001e007800fe
:10257c004600de00e14060002e0090008180fb00f0
:10258c00e1806000100178000200a10082807000e0
:10259c00010878001e009000ff4060002e009000a3
:1025ac008180fb00ff8060008180400090017800fa
:1025bc0012fc2f00028161008280700001087800fb
:1025cc001e0090004500de00e34060002e009000ed
:1025dc008180fb00e3806000c608dd00900178007c
:1025ec00f2f32f00028161008280700001087800f4
:1025fc001e0090004800de00ff4060002e0090009e
:10260c008180fb00ff806000c808dd00900178002d
:10261c00f20f2e00028161008280700001087800a8
:10262c001e0090004d00de00804078002e009000cf
:10263c008180fb00cd08dd0090017800f2ff2100c5
:10264c000281610082807000010878000080fa002d
:10265c00000006000a00fa003007980041079800b5
:10266c000000eb00000f7800f0468000014780006e
:10267c0010079800210798001e0090000070a00021
:10268c00100798004e009000100078004800de0003
:10269c007f4060000080fb007f0060004800dd0090
:1026ac002e019000f10f2e008100610001007000de
:1026bc00200798004e009000100078004d00de00be
:1026cc00004078000080fb004d00dd002e019000e2
:1026dc00f1ff2100810061000100700020079800cb
:1026ec004e009000100078004600de006340600051
:1026fc000080fb00630060004500dd002e019000af
:10270c00f1f92f0081006100010070002007980092
:10271c004e009000100078000000d1007f40600057
:10272c000080fb007f0060002e01900001fe2f0056
:10273c008100610001007000200798004e0090009d
:10274c0010007800614060000080fb0061006000b8
:10275c004600dd009e0090000160a10001007000a9
:10276c00100798003e0090006c00b9000000780043
:10277c0001052000010f40001e009000ae009000eb
:10278c000001be001e00780029f807000080fa0046
:10279c00000006000a00fa00300798004107980074
:1027ac000000eb00000f7800f0468000014780002d
:1027bc0010079800210798001e0090000070a100df
:1027cc00100798004e009000100078000000d10017
:1027dc007f4060000080fb007f0060004800dd004f
:1027ec002e019000f10f2e0081006100010070009d
:1027fc00200798004e009000100078004600de0084
:10280c00674060000080fb004d00dd002e01900051
:10281c00f1ff210081006100010070002007980089
:10282c004e00900010007800614060000080fb00ba
:10283c00610060004500dd009e0090000150a10089
:10284c0001007000100798003e0090006c00b90069
:10285c000000780001052000010f40001e009000d0
:10286c00ae0090000001be001e007800f0f70700db
:10287c000080fa00000006000200fa000040eb00a5
:10288c00004f78008e007800c0e02000ccf70700e5
:10289c001e4078000004a000004f78001e40780015
:1028ac0080407800c0e02000adf707000080fa00ff
:1028bc00000006006800fa0060e798006000b800ad
:1028cc00008fbe0008003700660047001e00400065
:1028dc00eee0900001487800120020000300200078
:1028ec001e0f41005e974900f005200001002000fa
:1028fc001e01be00800f5100818f5900f2ff36007f
:10290c0000402000200798006000b800008fbe0037
:10291c000c0037006600470002062000800078009b
:10292c002e00900037f707002e0090000006b00034
:10293c002007980012002000030020001e0f410009
:10294c005e9749001e01be004001200001002000de
:10295c00800f5100818f5900eeff36000080fa0085
:10296c00000006000400fa00100798000040eb007d
:10297c00004f78008e0078003000200090f70700a0
:10298c009e40780080cfb30000c06000004f7800fc
:10299c001e009000804078001e40780000c070003f
:1029ac00004f78001e4078008040780030002000f6
:1029bc006bf707000080fa00000006000000fa0028
:1029cc008480a9000080fa00004006003600f80060
:1029dc00809fbe00829fbe00849fbe00869fbe006b
:1029ec000000fa001000070085c0a9000080fa0062
:1029fc004f03be004f02be004f01be004f00be0091
:102a0c003600f900004006000000fa008540a900dd
:102a1c000080fa00004006000000fa00cae2a9009b
:102a2c000080fa00000006000000fa00cae2a800cc
:082a3c000080fa000000060012
:020000040000fa
:102a44008e0800007000000002000000600798007b
:102a5400040f0f003e000300030e000000100200ec
:102a640000000000000000000000000040004000e2
:102a74004000000000000000000000000000000012
:102a84000000000000000000000000000000000042
:102a94000000000020000000000000000000000012
:102aa400000004000000000000000000000000001e
:102ab40000000000000000000460000000000000ae
:102ac400000000000000600004000000030000009b
:102ad40000000000000000000000000000000000f2
:102ae400000000000608000088000000000000004c
:102af400000800000600000000000000a0270000fd
:102b0400600000000000000040270000600000009a
:082b14000000000000000000b9
:020000040000fa
:102b1c000000fa0090022000303a8800213a800030
:102b2c0000fe2f0000806000203a8800213a8000cf
:102b3c00f0f32f0000806000203a88001200200083
:102b4c0080072000a1092000337420008049780000
:102b5c00814978008249780012002000600420002e
:102b6c007105200023742000804978008149780089
:102b7c008249780000000000113a80000000270014
:102b8c008080600000002100808f5000faff3a0026
:102b9c0000000000113a800000022000008060005c
:102bac000000e000fbff32000080fa00000006008d
:020000040000fa
:102bbc00f03fb1000180b10006003500ee030900c2
:102bcc0000000000403fb1000180b100fbff3d0060
:102bdc001000b000203fb00002003500008009005a
:082bec000000000000000600db
:020000040000fa
:0200000401f009
:04000c008000000070
:020000040000fa
:0200000401f009
:040010006700000085
:020000040000fa
:0200000401f009
:040014005f00000089
:020000040000fa
:0200000401f009
:04001c00dfff000002
:00000001FF
